{
  "contractName": "AnswerFactory",
  "abi": [
    {
      "constant": false,
      "inputs": [
        {
          "name": "_id",
          "type": "uint256"
        }
      ],
      "name": "createQuestion",
      "outputs": [
        {
          "name": "index",
          "type": "uint256"
        }
      ],
      "payable": true,
      "stateMutability": "payable",
      "type": "function"
    },
    {
      "constant": false,
      "inputs": [
        {
          "name": "_minBounty",
          "type": "uint256"
        }
      ],
      "name": "setMinBounty",
      "outputs": [],
      "payable": false,
      "stateMutability": "nonpayable",
      "type": "function"
    },
    {
      "constant": true,
      "inputs": [
        {
          "name": "",
          "type": "uint256"
        }
      ],
      "name": "answerStruct",
      "outputs": [
        {
          "name": "giver",
          "type": "address"
        },
        {
          "name": "stake",
          "type": "uint256"
        },
        {
          "name": "qid",
          "type": "uint256"
        },
        {
          "name": "score",
          "type": "uint256"
        }
      ],
      "payable": false,
      "stateMutability": "view",
      "type": "function"
    },
    {
      "constant": false,
      "inputs": [],
      "name": "renounceOwnership",
      "outputs": [],
      "payable": false,
      "stateMutability": "nonpayable",
      "type": "function"
    },
    {
      "constant": true,
      "inputs": [],
      "name": "minBounty",
      "outputs": [
        {
          "name": "",
          "type": "uint256"
        }
      ],
      "payable": false,
      "stateMutability": "view",
      "type": "function"
    },
    {
      "constant": true,
      "inputs": [],
      "name": "owner",
      "outputs": [
        {
          "name": "",
          "type": "address"
        }
      ],
      "payable": false,
      "stateMutability": "view",
      "type": "function"
    },
    {
      "constant": true,
      "inputs": [
        {
          "name": "",
          "type": "uint256"
        }
      ],
      "name": "questionStruct",
      "outputs": [
        {
          "name": "bounty",
          "type": "uint256"
        },
        {
          "name": "asker",
          "type": "address"
        },
        {
          "name": "payedOut",
          "type": "bool"
        }
      ],
      "payable": false,
      "stateMutability": "view",
      "type": "function"
    },
    {
      "constant": true,
      "inputs": [
        {
          "name": "",
          "type": "uint256"
        }
      ],
      "name": "answerList",
      "outputs": [
        {
          "name": "",
          "type": "uint256"
        }
      ],
      "payable": false,
      "stateMutability": "view",
      "type": "function"
    },
    {
      "constant": true,
      "inputs": [],
      "name": "getQuestionCount",
      "outputs": [
        {
          "name": "",
          "type": "uint256"
        }
      ],
      "payable": false,
      "stateMutability": "view",
      "type": "function"
    },
    {
      "constant": true,
      "inputs": [
        {
          "name": "",
          "type": "uint256"
        }
      ],
      "name": "questionList",
      "outputs": [
        {
          "name": "",
          "type": "uint256"
        }
      ],
      "payable": false,
      "stateMutability": "view",
      "type": "function"
    },
    {
      "constant": false,
      "inputs": [
        {
          "name": "newOwner",
          "type": "address"
        }
      ],
      "name": "transferOwnership",
      "outputs": [],
      "payable": false,
      "stateMutability": "nonpayable",
      "type": "function"
    },
    {
      "constant": true,
      "inputs": [],
      "name": "currentStake",
      "outputs": [
        {
          "name": "",
          "type": "uint256"
        }
      ],
      "payable": false,
      "stateMutability": "view",
      "type": "function"
    },
    {
      "anonymous": false,
      "inputs": [
        {
          "indexed": true,
          "name": "previousOwner",
          "type": "address"
        }
      ],
      "name": "OwnershipRenounced",
      "type": "event"
    },
    {
      "anonymous": false,
      "inputs": [
        {
          "indexed": true,
          "name": "previousOwner",
          "type": "address"
        },
        {
          "indexed": true,
          "name": "newOwner",
          "type": "address"
        }
      ],
      "name": "OwnershipTransferred",
      "type": "event"
    },
    {
      "constant": false,
      "inputs": [
        {
          "name": "_id",
          "type": "uint256"
        },
        {
          "name": "_qid",
          "type": "uint256"
        }
      ],
      "name": "createAnswer",
      "outputs": [
        {
          "name": "index",
          "type": "uint256"
        }
      ],
      "payable": true,
      "stateMutability": "payable",
      "type": "function"
    },
    {
      "constant": true,
      "inputs": [
        {
          "name": "_qid",
          "type": "uint256"
        }
      ],
      "name": "answerCount",
      "outputs": [
        {
          "name": "count",
          "type": "uint256"
        }
      ],
      "payable": false,
      "stateMutability": "view",
      "type": "function"
    },
    {
      "constant": true,
      "inputs": [
        {
          "name": "_id",
          "type": "uint256"
        }
      ],
      "name": "getQuestionId",
      "outputs": [
        {
          "name": "qid",
          "type": "uint256"
        }
      ],
      "payable": false,
      "stateMutability": "view",
      "type": "function"
    }
  ],
  "bytecode": "0x6080604052655af3107a40006001556509184e72a000600455336000806101000a81548173ffffffffffffffffffffffffffffffffffffffff021916908373ffffffffffffffffffffffffffffffffffffffff160217905550336000806101000a81548173ffffffffffffffffffffffffffffffffffffffff021916908373ffffffffffffffffffffffffffffffffffffffff160217905550610bc3806100a76000396000f3006080604052600436106100db576000357c0100000000000000000000000000000000000000000000000000000000900463ffffffff1680631e1967b7146100e05780633b58f49a1461011457806368a0dd65146101415780636a532d02146101c3578063715018a61461020157806389b8db55146102185780638cae231e146102435780638da5cb5b14610284578063b8b559b0146102db578063c9930ee01461035a578063dd41cc2f1461039b578063e73cf0da146103c6578063eaaea05c14610407578063f2fde38b14610448578063fdeaacd61461048b575b600080fd5b6100fe600480360381019080803590602001909291905050506104b6565b6040518082815260200191505060405180910390f35b34801561012057600080fd5b5061013f6004803603810190808035906020019092919050505061059c565b005b34801561014d57600080fd5b5061016c60048036038101908080359060200190929190505050610601565b604051808573ffffffffffffffffffffffffffffffffffffffff1673ffffffffffffffffffffffffffffffffffffffff16815260200184815260200183815260200182815260200194505050505060405180910390f35b6101eb6004803603810190808035906020019092919080359060200190929190505050610651565b6040518082815260200191505060405180910390f35b34801561020d57600080fd5b506102166107d6565b005b34801561022457600080fd5b5061022d6108d8565b6040518082815260200191505060405180910390f35b34801561024f57600080fd5b5061026e600480360381019080803590602001909291905050506108de565b6040518082815260200191505060405180910390f35b34801561029057600080fd5b506102996108fe565b604051808273ffffffffffffffffffffffffffffffffffffffff1673ffffffffffffffffffffffffffffffffffffffff16815260200191505060405180910390f35b3480156102e757600080fd5b5061030660048036038101908080359060200190929190505050610923565b604051808481526020018373ffffffffffffffffffffffffffffffffffffffff1673ffffffffffffffffffffffffffffffffffffffff16815260200182151515158152602001935050505060405180910390f35b34801561036657600080fd5b506103856004803603810190808035906020019092919050505061097a565b6040518082815260200191505060405180910390f35b3480156103a757600080fd5b506103b061099d565b6040518082815260200191505060405180910390f35b3480156103d257600080fd5b506103f1600480360381019080803590602001909291905050506109aa565b6040518082815260200191505060405180910390f35b34801561041357600080fd5b5061043260048036038101908080359060200190929190505050610a19565b6040518082815260200191505060405180910390f35b34801561045457600080fd5b50610489600480360381019080803573ffffffffffffffffffffffffffffffffffffffff169060200190929190505050610a3c565b005b34801561049757600080fd5b506104a0610b91565b6040518082815260200191505060405180910390f35b6000600154341115156104c857600080fd5b346002600084815260200190815260200160002060000181905550336002600084815260200190815260200160002060010160006101000a81548173ffffffffffffffffffffffffffffffffffffffff021916908373ffffffffffffffffffffffffffffffffffffffff16021790555060006002600084815260200190815260200160002060010160146101000a81548160ff021916908315150217905550600160038390806001815401808255809150509060018203906000526020600020016000909192909190915055039050919050565b6000809054906101000a900473ffffffffffffffffffffffffffffffffffffffff1673ffffffffffffffffffffffffffffffffffffffff163373ffffffffffffffffffffffffffffffffffffffff161415156105f757600080fd5b8060018190555050565b60056020528060005260406000206000915090508060000160009054906101000a900473ffffffffffffffffffffffffffffffffffffffff16908060010154908060020154908060030154905084565b6000600454341115156106f2576040517f08c379a00000000000000000000000000000000000000000000000000000000081526004018080602001828103825260248152602001807f4d757374207374616b65206d6f7265207468616e20746865206c61737420616e81526020017f737765720000000000000000000000000000000000000000000000000000000081525060400191505060405180910390fd5b34600481905550336005600085815260200190815260200160002060000160006101000a81548173ffffffffffffffffffffffffffffffffffffffff021916908373ffffffffffffffffffffffffffffffffffffffff1602179055503460056000858152602001908152602001600020600101819055508160056000858152602001908152602001600020600201819055506000600560008581526020019081526020016000206003018190555060016006849080600181540180825580915050906001820390600052602060002001600090919290919091505503905092915050565b6000809054906101000a900473ffffffffffffffffffffffffffffffffffffffff1673ffffffffffffffffffffffffffffffffffffffff163373ffffffffffffffffffffffffffffffffffffffff1614151561083157600080fd5b6000809054906101000a900473ffffffffffffffffffffffffffffffffffffffff1673ffffffffffffffffffffffffffffffffffffffff167ff8df31144d9c2f0f6b59d69b8b98abd5459d07f2742c4df920b25aae33c6482060405160405180910390a260008060006101000a81548173ffffffffffffffffffffffffffffffffffffffff021916908373ffffffffffffffffffffffffffffffffffffffff160217905550565b60015481565b600060056000838152602001908152602001600020600201549050919050565b6000809054906101000a900473ffffffffffffffffffffffffffffffffffffffff1681565b60026020528060005260406000206000915090508060000154908060010160009054906101000a900473ffffffffffffffffffffffffffffffffffffffff16908060010160149054906101000a900460ff16905083565b60068181548110151561098957fe5b906000526020600020016000915090505481565b6000600380549050905090565b60008060009150600090505b600680549050811015610a105782600560006006848154811015156109d757fe5b90600052602060002001548152602001908152602001600020600201541415610a035781806001019250505b80806001019150506109b6565b81915050919050565b600381815481101515610a2857fe5b906000526020600020016000915090505481565b6000809054906101000a900473ffffffffffffffffffffffffffffffffffffffff1673ffffffffffffffffffffffffffffffffffffffff163373ffffffffffffffffffffffffffffffffffffffff16141515610a9757600080fd5b600073ffffffffffffffffffffffffffffffffffffffff168173ffffffffffffffffffffffffffffffffffffffff1614151515610ad357600080fd5b8073ffffffffffffffffffffffffffffffffffffffff166000809054906101000a900473ffffffffffffffffffffffffffffffffffffffff1673ffffffffffffffffffffffffffffffffffffffff167f8be0079c531659141344cd1fd0a4f28419497f9722a3daafe3b4186f6b6457e060405160405180910390a3806000806101000a81548173ffffffffffffffffffffffffffffffffffffffff021916908373ffffffffffffffffffffffffffffffffffffffff16021790555050565b600454815600a165627a7a723058202d62e68871b1e1e25968c0e25742dcf26aeef369e72dcf92983d719952e4a5f90029",
  "source": "pragma solidity ^0.4.23;\r\n\r\nimport \"./QuestionFactory.sol\";\r\n\r\n/*\r\n * the AnswerFactory allows user to post answers to questions\r\n */\r\ncontract AnswerFactory is QuestionFactory {\r\n\r\n    uint public currentStake = 10000000000000 wei;\r\n\r\n    struct Answer {\r\n        address giver;\r\n        uint stake;\r\n        uint qid;\r\n        uint score;\r\n    }\r\n\r\n    mapping(uint => Answer) public answerStruct;\r\n    uint[] public answerList;\r\n\r\n    function createAnswer(uint _id, uint _qid) public payable returns (uint index) {\r\n        require(msg.value > currentStake, \"Must stake more than the last answer\");\r\n        currentStake = msg.value;\r\n        answerStruct[_id].giver = msg.sender;\r\n        answerStruct[_id].stake = msg.value;        \r\n        answerStruct[_id].qid = _qid;\r\n        answerStruct[_id].score = 0;\r\n        return answerList.push(_id)-1;\r\n    }\r\n\r\n    function answerCount(uint _qid) public view returns (uint count) {\r\n        count = 0;\r\n        for (uint i = 0; i < answerList.length; i++) {\r\n            if (answerStruct[answerList[i]].qid == _qid) {\r\n                count++;\r\n            }\r\n        }\r\n        return count;\r\n    }\r\n\r\n    function getQuestionId(uint _id) public view returns (uint qid) {\r\n        return answerStruct[_id].qid;\r\n    }\r\n}",
  "sourcePath": "C:\\Users\\kshif\\Desktop\\catalyst\\contracts\\contracts\\AnswerFactory.sol",
  "compiler": {
    "name": "solc",
    "version": "0.4.24+commit.e67f0147.Emscripten.clang"
  },
  "schemaVersion": "2.0.0",
  "updatedAt": "2018-05-31T06:56:21.980Z"
}