{
  "contractName": "AnswerFactory",
  "abi": [
    {
      "constant": true,
      "inputs": [
        {
          "name": "",
          "type": "uint256"
        },
        {
          "name": "",
          "type": "uint256"
        }
      ],
      "name": "questionIdToAnswerIds",
      "outputs": [
        {
          "name": "",
          "type": "uint256"
        }
      ],
      "payable": false,
      "stateMutability": "view",
      "type": "function"
    },
    {
      "constant": false,
      "inputs": [
        {
          "name": "_id",
          "type": "uint256"
        }
      ],
      "name": "createQuestion",
      "outputs": [
        {
          "name": "index",
          "type": "uint256"
        }
      ],
      "payable": true,
      "stateMutability": "payable",
      "type": "function"
    },
    {
      "constant": false,
      "inputs": [
        {
          "name": "_minBounty",
          "type": "uint256"
        }
      ],
      "name": "setMinBounty",
      "outputs": [],
      "payable": false,
      "stateMutability": "nonpayable",
      "type": "function"
    },
    {
      "constant": true,
      "inputs": [
        {
          "name": "",
          "type": "uint256"
        }
      ],
      "name": "answerStruct",
      "outputs": [
        {
          "name": "giver",
          "type": "address"
        },
        {
          "name": "stake",
          "type": "uint256"
        },
        {
          "name": "qid",
          "type": "uint256"
        },
        {
          "name": "score",
          "type": "uint256"
        }
      ],
      "payable": false,
      "stateMutability": "view",
      "type": "function"
    },
    {
      "constant": false,
      "inputs": [],
      "name": "renounceOwnership",
      "outputs": [],
      "payable": false,
      "stateMutability": "nonpayable",
      "type": "function"
    },
    {
      "constant": true,
      "inputs": [],
      "name": "minBounty",
      "outputs": [
        {
          "name": "",
          "type": "uint256"
        }
      ],
      "payable": false,
      "stateMutability": "view",
      "type": "function"
    },
    {
      "constant": true,
      "inputs": [],
      "name": "owner",
      "outputs": [
        {
          "name": "",
          "type": "address"
        }
      ],
      "payable": false,
      "stateMutability": "view",
      "type": "function"
    },
    {
      "constant": true,
      "inputs": [
        {
          "name": "",
          "type": "uint256"
        }
      ],
      "name": "questionStruct",
      "outputs": [
        {
          "name": "bounty",
          "type": "uint256"
        },
        {
          "name": "asker",
          "type": "address"
        },
        {
          "name": "payedOut",
          "type": "bool"
        }
      ],
      "payable": false,
      "stateMutability": "view",
      "type": "function"
    },
    {
      "constant": true,
      "inputs": [
        {
          "name": "",
          "type": "uint256"
        }
      ],
      "name": "answerList",
      "outputs": [
        {
          "name": "",
          "type": "uint256"
        }
      ],
      "payable": false,
      "stateMutability": "view",
      "type": "function"
    },
    {
      "constant": true,
      "inputs": [],
      "name": "getQuestionCount",
      "outputs": [
        {
          "name": "",
          "type": "uint256"
        }
      ],
      "payable": false,
      "stateMutability": "view",
      "type": "function"
    },
    {
      "constant": true,
      "inputs": [
        {
          "name": "",
          "type": "uint256"
        }
      ],
      "name": "questionList",
      "outputs": [
        {
          "name": "",
          "type": "uint256"
        }
      ],
      "payable": false,
      "stateMutability": "view",
      "type": "function"
    },
    {
      "constant": false,
      "inputs": [
        {
          "name": "newOwner",
          "type": "address"
        }
      ],
      "name": "transferOwnership",
      "outputs": [],
      "payable": false,
      "stateMutability": "nonpayable",
      "type": "function"
    },
    {
      "constant": true,
      "inputs": [],
      "name": "currentStake",
      "outputs": [
        {
          "name": "",
          "type": "uint256"
        }
      ],
      "payable": false,
      "stateMutability": "view",
      "type": "function"
    },
    {
      "anonymous": false,
      "inputs": [
        {
          "indexed": true,
          "name": "previousOwner",
          "type": "address"
        }
      ],
      "name": "OwnershipRenounced",
      "type": "event"
    },
    {
      "anonymous": false,
      "inputs": [
        {
          "indexed": true,
          "name": "previousOwner",
          "type": "address"
        },
        {
          "indexed": true,
          "name": "newOwner",
          "type": "address"
        }
      ],
      "name": "OwnershipTransferred",
      "type": "event"
    },
    {
      "constant": false,
      "inputs": [
        {
          "name": "_id",
          "type": "uint256"
        },
        {
          "name": "_qid",
          "type": "uint256"
        }
      ],
      "name": "createAnswer",
      "outputs": [
        {
          "name": "index",
          "type": "uint256"
        }
      ],
      "payable": true,
      "stateMutability": "payable",
      "type": "function"
    },
    {
      "constant": true,
      "inputs": [
        {
          "name": "_qid",
          "type": "uint256"
        }
      ],
      "name": "answerCount",
      "outputs": [
        {
          "name": "count",
          "type": "uint256"
        }
      ],
      "payable": false,
      "stateMutability": "view",
      "type": "function"
    },
    {
      "constant": true,
      "inputs": [
        {
          "name": "_qid",
          "type": "uint256"
        }
      ],
      "name": "getAnswers",
      "outputs": [
        {
          "name": "",
          "type": "uint256[]"
        }
      ],
      "payable": false,
      "stateMutability": "view",
      "type": "function"
    },
    {
      "constant": true,
      "inputs": [
        {
          "name": "_id",
          "type": "uint256"
        }
      ],
      "name": "getQuestionId",
      "outputs": [
        {
          "name": "qid",
          "type": "uint256"
        }
      ],
      "payable": false,
      "stateMutability": "view",
      "type": "function"
    }
  ],
  "bytecode": "0x6080604052655af3107a40006001556509184e72a000600455336000806101000a81548173ffffffffffffffffffffffffffffffffffffffff021916908373ffffffffffffffffffffffffffffffffffffffff160217905550336000806101000a81548173ffffffffffffffffffffffffffffffffffffffff021916908373ffffffffffffffffffffffffffffffffffffffff160217905550610e93806100a76000396000f3006080604052600436106100f1576000357c0100000000000000000000000000000000000000000000000000000000900463ffffffff1680630967a797146100f65780631e1967b7146101415780631e59e02a146101755780633b58f49a146101f757806368a0dd65146102245780636a532d02146102a6578063715018a6146102e457806389b8db55146102fb5780638cae231e146103265780638da5cb5b14610367578063b8b559b0146103be578063c9930ee01461043d578063dd41cc2f1461047e578063e73cf0da146104a9578063eaaea05c146104ea578063f2fde38b1461052b578063fdeaacd61461056e575b600080fd5b34801561010257600080fd5b5061012b6004803603810190808035906020019092919080359060200190929190505050610599565b6040518082815260200191505060405180910390f35b61015f600480360381019080803590602001909291905050506105c9565b6040518082815260200191505060405180910390f35b34801561018157600080fd5b506101a0600480360381019080803590602001909291905050506106af565b6040518080602001828103825283818151815260200191508051906020019060200280838360005b838110156101e35780820151818401526020810190506101c8565b505050509050019250505060405180910390f35b34801561020357600080fd5b506102226004803603810190808035906020019092919050505061071f565b005b34801561023057600080fd5b5061024f60048036038101908080359060200190929190505050610784565b604051808573ffffffffffffffffffffffffffffffffffffffff1673ffffffffffffffffffffffffffffffffffffffff16815260200184815260200183815260200182815260200194505050505060405180910390f35b6102ce60048036038101908080359060200190929190803590602001909291905050506107d4565b6040518082815260200191505060405180910390f35b3480156102f057600080fd5b506102f96109db565b005b34801561030757600080fd5b50610310610add565b6040518082815260200191505060405180910390f35b34801561033257600080fd5b5061035160048036038101908080359060200190929190505050610ae3565b6040518082815260200191505060405180910390f35b34801561037357600080fd5b5061037c610b03565b604051808273ffffffffffffffffffffffffffffffffffffffff1673ffffffffffffffffffffffffffffffffffffffff16815260200191505060405180910390f35b3480156103ca57600080fd5b506103e960048036038101908080359060200190929190505050610b28565b604051808481526020018373ffffffffffffffffffffffffffffffffffffffff1673ffffffffffffffffffffffffffffffffffffffff16815260200182151515158152602001935050505060405180910390f35b34801561044957600080fd5b5061046860048036038101908080359060200190929190505050610b7f565b6040518082815260200191505060405180910390f35b34801561048a57600080fd5b50610493610ba2565b6040518082815260200191505060405180910390f35b3480156104b557600080fd5b506104d460048036038101908080359060200190929190505050610baf565b6040518082815260200191505060405180910390f35b3480156104f657600080fd5b5061051560048036038101908080359060200190929190505050610caa565b6040518082815260200191505060405180910390f35b34801561053757600080fd5b5061056c600480360381019080803573ffffffffffffffffffffffffffffffffffffffff169060200190929190505050610ccd565b005b34801561057a57600080fd5b50610583610e22565b6040518082815260200191505060405180910390f35b6005602052816000526040600020818154811015156105b457fe5b90600052602060002001600091509150505481565b6000600154341115156105db57600080fd5b346002600084815260200190815260200160002060000181905550336002600084815260200190815260200160002060010160006101000a81548173ffffffffffffffffffffffffffffffffffffffff021916908373ffffffffffffffffffffffffffffffffffffffff16021790555060006002600084815260200190815260200160002060010160146101000a81548160ff021916908315150217905550600160038390806001815401808255809150509060018203906000526020600020016000909192909190915055039050919050565b6060806005600084815260200190815260200160002080548060200260200160405190810160405280929190818152602001828054801561070f57602002820191906000526020600020905b8154815260200190600101908083116106fb575b5050505050905080915050919050565b6000809054906101000a900473ffffffffffffffffffffffffffffffffffffffff1673ffffffffffffffffffffffffffffffffffffffff163373ffffffffffffffffffffffffffffffffffffffff1614151561077a57600080fd5b8060018190555050565b60066020528060005260406000206000915090508060000160009054906101000a900473ffffffffffffffffffffffffffffffffffffffff16908060010154908060020154908060030154905084565b600060056107e1836106af565b5111151515610858576040517f08c379a000000000000000000000000000000000000000000000000000000000815260040180806020018281038252601b8152602001807f4f6e6c79203520616e737765727320706572207175657374696f6e000000000081525060200191505060405180910390fd5b600454341115156108f7576040517f08c379a00000000000000000000000000000000000000000000000000000000081526004018080602001828103825260248152602001807f4d757374207374616b65206d6f7265207468616e20746865206c61737420616e81526020017f737765720000000000000000000000000000000000000000000000000000000081525060400191505060405180910390fd5b34600481905550336006600085815260200190815260200160002060000160006101000a81548173ffffffffffffffffffffffffffffffffffffffff021916908373ffffffffffffffffffffffffffffffffffffffff1602179055503460066000858152602001908152602001600020600101819055508160066000858152602001908152602001600020600201819055506000600660008581526020019081526020016000206003018190555060016007849080600181540180825580915050906001820390600052602060002001600090919290919091505503905092915050565b6000809054906101000a900473ffffffffffffffffffffffffffffffffffffffff1673ffffffffffffffffffffffffffffffffffffffff163373ffffffffffffffffffffffffffffffffffffffff16141515610a3657600080fd5b6000809054906101000a900473ffffffffffffffffffffffffffffffffffffffff1673ffffffffffffffffffffffffffffffffffffffff167ff8df31144d9c2f0f6b59d69b8b98abd5459d07f2742c4df920b25aae33c6482060405160405180910390a260008060006101000a81548173ffffffffffffffffffffffffffffffffffffffff021916908373ffffffffffffffffffffffffffffffffffffffff160217905550565b60015481565b600060066000838152602001908152602001600020600201549050919050565b6000809054906101000a900473ffffffffffffffffffffffffffffffffffffffff1681565b60026020528060005260406000206000915090508060000154908060010160009054906101000a900473ffffffffffffffffffffffffffffffffffffffff16908060010160149054906101000a900460ff16905083565b600781815481101515610b8e57fe5b906000526020600020016000915090505481565b6000600380549050905090565b600080610bba610e28565b60009250600091505b600780549050821015610ca05760066000600784815481101515610be357fe5b90600052602060002001548152602001908152602001600020608060405190810160405290816000820160009054906101000a900473ffffffffffffffffffffffffffffffffffffffff1673ffffffffffffffffffffffffffffffffffffffff1673ffffffffffffffffffffffffffffffffffffffff168152602001600182015481526020016002820154815260200160038201548152505090508381604001511415610c935782806001019350505b8180600101925050610bc3565b8292505050919050565b600381815481101515610cb957fe5b906000526020600020016000915090505481565b6000809054906101000a900473ffffffffffffffffffffffffffffffffffffffff1673ffffffffffffffffffffffffffffffffffffffff163373ffffffffffffffffffffffffffffffffffffffff16141515610d2857600080fd5b600073ffffffffffffffffffffffffffffffffffffffff168173ffffffffffffffffffffffffffffffffffffffff1614151515610d6457600080fd5b8073ffffffffffffffffffffffffffffffffffffffff166000809054906101000a900473ffffffffffffffffffffffffffffffffffffffff1673ffffffffffffffffffffffffffffffffffffffff167f8be0079c531659141344cd1fd0a4f28419497f9722a3daafe3b4186f6b6457e060405160405180910390a3806000806101000a81548173ffffffffffffffffffffffffffffffffffffffff021916908373ffffffffffffffffffffffffffffffffffffffff16021790555050565b60045481565b608060405190810160405280600073ffffffffffffffffffffffffffffffffffffffff16815260200160008152602001600081526020016000815250905600a165627a7a7230582035e5ac519e87f997b25da7c49c91d58bf55c69a003feef842fb8a5199f2c19630029",
  "source": "pragma solidity ^0.4.23;\r\n\r\nimport \"./QuestionFactory.sol\";\r\n\r\n/*\r\n * the AnswerFactory allows user to post answers to questions\r\n */\r\ncontract AnswerFactory is QuestionFactory {\r\n\r\n    uint public currentStake = 10000000000000 wei;\r\n\r\n    struct Answer {\r\n        address giver;\r\n        uint stake;\r\n        uint qid;\r\n        uint score;\r\n    }\r\n\r\n    mapping(uint => uint[]) public questionIdToAnswerIds;\r\n    mapping(uint => Answer) public answerStruct;\r\n    uint[] public answerList;\r\n\r\n    function createAnswer(uint _id, uint _qid) public payable returns (uint index) {\r\n        require(getAnswers(_qid).length <= 5, \"Only 5 answers per question\");\r\n        require(msg.value > currentStake, \"Must stake more than the last answer\");\r\n        currentStake = msg.value;\r\n        answerStruct[_id].giver = msg.sender;\r\n        answerStruct[_id].stake = msg.value;        \r\n        answerStruct[_id].qid = _qid;\r\n        answerStruct[_id].score = 0;\r\n        return answerList.push(_id)-1;\r\n    }\r\n\r\n    function answerCount(uint _qid) public view returns (uint count) {\r\n        count = 0;\r\n        for (uint i = 0; i < answerList.length; i++) {\r\n            Answer memory answer = answerStruct[answerList[i]];\r\n            if (answer.qid == _qid) {\r\n                count++;\r\n            }\r\n        }\r\n        return count;\r\n    }\r\n\r\n    function getAnswers(uint _qid) public view returns (uint[]) {\r\n        uint[] memory _questionAnswers = questionIdToAnswerIds[_qid];\r\n        return _questionAnswers;\r\n    }\r\n\r\n    function getQuestionId(uint _id) public view returns (uint qid) {\r\n        return answerStruct[_id].qid;\r\n    }\r\n}",
  "sourcePath": "C:\\Users\\kshif\\Desktop\\catalyst\\contracts\\contracts\\AnswerFactory.sol",
  "compiler": {
    "name": "solc",
    "version": "0.4.24+commit.e67f0147.Emscripten.clang"
  },
  "schemaVersion": "2.0.0",
  "updatedAt": "2018-05-31T20:46:08.371Z"
}