{
  "contractName": "UpVote",
  "abi": [
    {
      "constant": false,
      "inputs": [
        {
          "name": "_id",
          "type": "uint256"
        }
      ],
      "name": "createQuestion",
      "outputs": [
        {
          "name": "index",
          "type": "uint256"
        }
      ],
      "payable": true,
      "stateMutability": "payable",
      "type": "function"
    },
    {
      "constant": false,
      "inputs": [
        {
          "name": "_minBounty",
          "type": "uint256"
        }
      ],
      "name": "setMinBounty",
      "outputs": [],
      "payable": false,
      "stateMutability": "nonpayable",
      "type": "function"
    },
    {
      "constant": true,
      "inputs": [
        {
          "name": "",
          "type": "uint256"
        },
        {
          "name": "",
          "type": "uint256"
        }
      ],
      "name": "questionIdToVoteIds",
      "outputs": [
        {
          "name": "",
          "type": "uint256"
        }
      ],
      "payable": false,
      "stateMutability": "view",
      "type": "function"
    },
    {
      "constant": true,
      "inputs": [
        {
          "name": "",
          "type": "uint256"
        }
      ],
      "name": "votes",
      "outputs": [
        {
          "name": "voter",
          "type": "address"
        },
        {
          "name": "aid",
          "type": "uint256"
        }
      ],
      "payable": false,
      "stateMutability": "view",
      "type": "function"
    },
    {
      "constant": true,
      "inputs": [
        {
          "name": "",
          "type": "uint256"
        }
      ],
      "name": "answerStruct",
      "outputs": [
        {
          "name": "giver",
          "type": "address"
        },
        {
          "name": "stake",
          "type": "uint256"
        },
        {
          "name": "qid",
          "type": "uint256"
        },
        {
          "name": "score",
          "type": "uint256"
        }
      ],
      "payable": false,
      "stateMutability": "view",
      "type": "function"
    },
    {
      "constant": false,
      "inputs": [
        {
          "name": "_id",
          "type": "uint256"
        },
        {
          "name": "_qid",
          "type": "uint256"
        }
      ],
      "name": "createAnswer",
      "outputs": [
        {
          "name": "index",
          "type": "uint256"
        }
      ],
      "payable": true,
      "stateMutability": "payable",
      "type": "function"
    },
    {
      "constant": false,
      "inputs": [],
      "name": "renounceOwnership",
      "outputs": [],
      "payable": false,
      "stateMutability": "nonpayable",
      "type": "function"
    },
    {
      "constant": true,
      "inputs": [],
      "name": "minBounty",
      "outputs": [
        {
          "name": "",
          "type": "uint256"
        }
      ],
      "payable": false,
      "stateMutability": "view",
      "type": "function"
    },
    {
      "constant": true,
      "inputs": [
        {
          "name": "_id",
          "type": "uint256"
        }
      ],
      "name": "getQuestionId",
      "outputs": [
        {
          "name": "qid",
          "type": "uint256"
        }
      ],
      "payable": false,
      "stateMutability": "view",
      "type": "function"
    },
    {
      "constant": true,
      "inputs": [],
      "name": "owner",
      "outputs": [
        {
          "name": "",
          "type": "address"
        }
      ],
      "payable": false,
      "stateMutability": "view",
      "type": "function"
    },
    {
      "constant": true,
      "inputs": [
        {
          "name": "",
          "type": "uint256"
        }
      ],
      "name": "questionStruct",
      "outputs": [
        {
          "name": "bounty",
          "type": "uint256"
        },
        {
          "name": "asker",
          "type": "address"
        },
        {
          "name": "payedOut",
          "type": "bool"
        }
      ],
      "payable": false,
      "stateMutability": "view",
      "type": "function"
    },
    {
      "constant": true,
      "inputs": [
        {
          "name": "",
          "type": "address"
        }
      ],
      "name": "reputation",
      "outputs": [
        {
          "name": "",
          "type": "uint256"
        }
      ],
      "payable": false,
      "stateMutability": "view",
      "type": "function"
    },
    {
      "constant": true,
      "inputs": [
        {
          "name": "",
          "type": "uint256"
        }
      ],
      "name": "answerList",
      "outputs": [
        {
          "name": "",
          "type": "uint256"
        }
      ],
      "payable": false,
      "stateMutability": "view",
      "type": "function"
    },
    {
      "constant": true,
      "inputs": [],
      "name": "getQuestionCount",
      "outputs": [
        {
          "name": "",
          "type": "uint256"
        }
      ],
      "payable": false,
      "stateMutability": "view",
      "type": "function"
    },
    {
      "constant": true,
      "inputs": [
        {
          "name": "_qid",
          "type": "uint256"
        }
      ],
      "name": "answerCount",
      "outputs": [
        {
          "name": "count",
          "type": "uint256"
        }
      ],
      "payable": false,
      "stateMutability": "view",
      "type": "function"
    },
    {
      "constant": true,
      "inputs": [
        {
          "name": "",
          "type": "uint256"
        }
      ],
      "name": "questionList",
      "outputs": [
        {
          "name": "",
          "type": "uint256"
        }
      ],
      "payable": false,
      "stateMutability": "view",
      "type": "function"
    },
    {
      "constant": false,
      "inputs": [
        {
          "name": "newOwner",
          "type": "address"
        }
      ],
      "name": "transferOwnership",
      "outputs": [],
      "payable": false,
      "stateMutability": "nonpayable",
      "type": "function"
    },
    {
      "constant": true,
      "inputs": [],
      "name": "currentStake",
      "outputs": [
        {
          "name": "",
          "type": "uint256"
        }
      ],
      "payable": false,
      "stateMutability": "view",
      "type": "function"
    },
    {
      "anonymous": false,
      "inputs": [
        {
          "indexed": true,
          "name": "previousOwner",
          "type": "address"
        }
      ],
      "name": "OwnershipRenounced",
      "type": "event"
    },
    {
      "anonymous": false,
      "inputs": [
        {
          "indexed": true,
          "name": "previousOwner",
          "type": "address"
        },
        {
          "indexed": true,
          "name": "newOwner",
          "type": "address"
        }
      ],
      "name": "OwnershipTransferred",
      "type": "event"
    },
    {
      "constant": false,
      "inputs": [
        {
          "name": "_voter",
          "type": "address"
        },
        {
          "name": "_reputation",
          "type": "uint16"
        }
      ],
      "name": "giveRightToVote",
      "outputs": [],
      "payable": false,
      "stateMutability": "nonpayable",
      "type": "function"
    },
    {
      "constant": false,
      "inputs": [
        {
          "name": "_voter",
          "type": "address"
        },
        {
          "name": "_aid",
          "type": "uint256"
        }
      ],
      "name": "upVote",
      "outputs": [],
      "payable": false,
      "stateMutability": "nonpayable",
      "type": "function"
    },
    {
      "constant": false,
      "inputs": [
        {
          "name": "_qid",
          "type": "uint256"
        }
      ],
      "name": "payoutWinner",
      "outputs": [
        {
          "name": "totalBounty",
          "type": "uint256"
        }
      ],
      "payable": false,
      "stateMutability": "nonpayable",
      "type": "function"
    }
  ],
  "bytecode": "0x6080604052655af3107a40006001556509184e72a000600455336000806101000a81548173ffffffffffffffffffffffffffffffffffffffff021916908373ffffffffffffffffffffffffffffffffffffffff160217905550336000806101000a81548173ffffffffffffffffffffffffffffffffffffffff021916908373ffffffffffffffffffffffffffffffffffffffff1602179055506116f9806100a76000396000f30060806040526004361061011d576000357c0100000000000000000000000000000000000000000000000000000000900463ffffffff1680631e1967b7146101225780633b58f49a146101565780634c629d4a146101835780635df81330146101ce57806368a0dd65146102425780636a532d02146102c4578063715018a61461030257806389b8db55146103195780638cae231e146103445780638da5cb5b14610385578063b8b559b0146103dc578063b9f794511461045b578063c9930ee0146104b2578063d68fd02a146104f3578063dd41cc2f14610534578063e25791141461055f578063e73cf0da146105ac578063ea14ed25146105ed578063eaaea05c1461063e578063f2fde38b1461067f578063fdeaacd6146106c2575b600080fd5b610140600480360381019080803590602001909291905050506106ed565b6040518082815260200191505060405180910390f35b34801561016257600080fd5b50610181600480360381019080803590602001909291905050506107d3565b005b34801561018f57600080fd5b506101b86004803603810190808035906020019092919080359060200190929190505050610838565b6040518082815260200191505060405180910390f35b3480156101da57600080fd5b506101f960048036038101908080359060200190929190505050610868565b604051808373ffffffffffffffffffffffffffffffffffffffff1673ffffffffffffffffffffffffffffffffffffffff1681526020018281526020019250505060405180910390f35b34801561024e57600080fd5b5061026d600480360381019080803590602001909291905050506108bb565b604051808573ffffffffffffffffffffffffffffffffffffffff1673ffffffffffffffffffffffffffffffffffffffff16815260200184815260200183815260200182815260200194505050505060405180910390f35b6102ec600480360381019080803590602001909291908035906020019092919050505061090b565b6040518082815260200191505060405180910390f35b34801561030e57600080fd5b50610317610a90565b005b34801561032557600080fd5b5061032e610b92565b6040518082815260200191505060405180910390f35b34801561035057600080fd5b5061036f60048036038101908080359060200190929190505050610b98565b6040518082815260200191505060405180910390f35b34801561039157600080fd5b5061039a610bb8565b604051808273ffffffffffffffffffffffffffffffffffffffff1673ffffffffffffffffffffffffffffffffffffffff16815260200191505060405180910390f35b3480156103e857600080fd5b5061040760048036038101908080359060200190929190505050610bdd565b604051808481526020018373ffffffffffffffffffffffffffffffffffffffff1673ffffffffffffffffffffffffffffffffffffffff16815260200182151515158152602001935050505060405180910390f35b34801561046757600080fd5b5061049c600480360381019080803573ffffffffffffffffffffffffffffffffffffffff169060200190929190505050610c34565b6040518082815260200191505060405180910390f35b3480156104be57600080fd5b506104dd60048036038101908080359060200190929190505050610c4c565b6040518082815260200191505060405180910390f35b3480156104ff57600080fd5b5061051e60048036038101908080359060200190929190505050610c6f565b6040518082815260200191505060405180910390f35b34801561054057600080fd5b50610549610ff0565b6040518082815260200191505060405180910390f35b34801561056b57600080fd5b506105aa600480360381019080803573ffffffffffffffffffffffffffffffffffffffff16906020019092919080359060200190929190505050610ffd565b005b3480156105b857600080fd5b506105d7600480360381019080803590602001909291905050506112cf565b6040518082815260200191505060405180910390f35b3480156105f957600080fd5b5061063c600480360381019080803573ffffffffffffffffffffffffffffffffffffffff169060200190929190803561ffff16906020019092919050505061133e565b005b34801561064a57600080fd5b50610669600480360381019080803590602001909291905050506113e5565b6040518082815260200191505060405180910390f35b34801561068b57600080fd5b506106c0600480360381019080803573ffffffffffffffffffffffffffffffffffffffff169060200190929190505050611408565b005b3480156106ce57600080fd5b506106d761155d565b6040518082815260200191505060405180910390f35b6000600154341115156106ff57600080fd5b346002600084815260200190815260200160002060000181905550336002600084815260200190815260200160002060010160006101000a81548173ffffffffffffffffffffffffffffffffffffffff021916908373ffffffffffffffffffffffffffffffffffffffff16021790555060006002600084815260200190815260200160002060010160146101000a81548160ff021916908315150217905550600160038390806001815401808255809150509060018203906000526020600020016000909192909190915055039050919050565b6000809054906101000a900473ffffffffffffffffffffffffffffffffffffffff1673ffffffffffffffffffffffffffffffffffffffff163373ffffffffffffffffffffffffffffffffffffffff1614151561082e57600080fd5b8060018190555050565b60086020528160005260406000208181548110151561085357fe5b90600052602060002001600091509150505481565b60078181548110151561087757fe5b90600052602060002090600202016000915090508060000160009054906101000a900473ffffffffffffffffffffffffffffffffffffffff16908060010154905082565b60056020528060005260406000206000915090508060000160009054906101000a900473ffffffffffffffffffffffffffffffffffffffff16908060010154908060020154908060030154905084565b6000600454341115156109ac576040517f08c379a00000000000000000000000000000000000000000000000000000000081526004018080602001828103825260248152602001807f4d757374207374616b65206d6f7265207468616e20746865206c61737420616e81526020017f737765720000000000000000000000000000000000000000000000000000000081525060400191505060405180910390fd5b34600481905550336005600085815260200190815260200160002060000160006101000a81548173ffffffffffffffffffffffffffffffffffffffff021916908373ffffffffffffffffffffffffffffffffffffffff1602179055503460056000858152602001908152602001600020600101819055508160056000858152602001908152602001600020600201819055506000600560008581526020019081526020016000206003018190555060016006849080600181540180825580915050906001820390600052602060002001600090919290919091505503905092915050565b6000809054906101000a900473ffffffffffffffffffffffffffffffffffffffff1673ffffffffffffffffffffffffffffffffffffffff163373ffffffffffffffffffffffffffffffffffffffff16141515610aeb57600080fd5b6000809054906101000a900473ffffffffffffffffffffffffffffffffffffffff1673ffffffffffffffffffffffffffffffffffffffff167ff8df31144d9c2f0f6b59d69b8b98abd5459d07f2742c4df920b25aae33c6482060405160405180910390a260008060006101000a81548173ffffffffffffffffffffffffffffffffffffffff021916908373ffffffffffffffffffffffffffffffffffffffff160217905550565b60015481565b600060056000838152602001908152602001600020600201549050919050565b6000809054906101000a900473ffffffffffffffffffffffffffffffffffffffff1681565b60026020528060005260406000206000915090508060000154908060010160009054906101000a900473ffffffffffffffffffffffffffffffffffffffff16908060010160149054906101000a900460ff16905083565b60096020528060005260406000206000915090505481565b600681815481101515610c5b57fe5b906000526020600020016000915090505481565b6000610c7961168e565b6000806002600086815260200190815260200160002060010160149054906101000a900460ff16151515610d15576040517f08c379a000000000000000000000000000000000000000000000000000000000815260040180806020018281038252601a8152602001807f5175657374696f6e20616c7265616479207061796564206f757400000000000081525060200191505060405180910390fd5b6000915060026000868152602001908152602001600020600001549350600090505b600680549050811015610edf578460056000600684815481101515610d5857fe5b90600052602060002001548152602001908152602001600020600201541415610ed257806509184e72a0000260056000600684815481101515610d9757fe5b906000526020600020015481526020019081526020016000206001015485010393508160056000600684815481101515610dcd57fe5b90600052602060002001548152602001908152602001600020600301541115610ed15760056000600683815481101515610e0357fe5b9060005260206000200154815260200190815260200160002060030154915060056000600683815481101515610e3557fe5b90600052602060002001548152602001908152602001600020608060405190810160405290816000820160009054906101000a900473ffffffffffffffffffffffffffffffffffffffff1673ffffffffffffffffffffffffffffffffffffffff1673ffffffffffffffffffffffffffffffffffffffff168152602001600182015481526020016002820154815260200160038201548152505092505b5b8080600101915050610d37565b6000821415610f6a576002600086815260200190815260200160002060010160009054906101000a900473ffffffffffffffffffffffffffffffffffffffff1673ffffffffffffffffffffffffffffffffffffffff166108fc859081150290604051600060405180830381858888f19350505050158015610f64573d6000803e3d6000fd5b50610fb6565b826000015173ffffffffffffffffffffffffffffffffffffffff166108fc859081150290604051600060405180830381858888f19350505050158015610fb4573d6000803e3d6000fd5b505b60016002600087815260200190815260200160002060010160146101000a81548160ff021916908315150217905550839350505050919050565b6000600380549050905090565b600080600061100b84610b98565b9250600960003373ffffffffffffffffffffffffffffffffffffffff1673ffffffffffffffffffffffffffffffffffffffff1681526020019081526020016000205491508473ffffffffffffffffffffffffffffffffffffffff166005600086815260200190815260200160002060000160009054906101000a900473ffffffffffffffffffffffffffffffffffffffff1673ffffffffffffffffffffffffffffffffffffffff1614151515611129576040517f08c379a000000000000000000000000000000000000000000000000000000000815260040180806020018281038252601d8152602001807f43616e277420766f7465206f6e20796f7572206f776e20616e7377657200000081525060200191505060405180910390fd5b6111338333611563565b1515156111a8576040517f08c379a00000000000000000000000000000000000000000000000000000000081526004018080602001828103825260118152602001807f43616e6e6f7420766f746520747769636500000000000000000000000000000081525060200191505060405180910390fd5b6001600760408051908101604052803373ffffffffffffffffffffffffffffffffffffffff168152602001878152509080600181540180825580915050906001820390600052602060002090600202016000909192909190915060008201518160000160006101000a81548173ffffffffffffffffffffffffffffffffffffffff021916908373ffffffffffffffffffffffffffffffffffffffff160217905550602082015181600101555050039050600860008481526020019081526020016000208190806001815401808255809150509060018203906000526020600020016000909192909190915055508160056000868152602001908152602001600020600301540160056000868152602001908152602001600020600301819055505050505050565b60008060009150600090505b6006805490508110156113355782600560006006848154811015156112fc57fe5b906000526020600020015481526020019081526020016000206002015414156113285781806001019250505b80806001019150506112db565b81915050919050565b6000809054906101000a900473ffffffffffffffffffffffffffffffffffffffff1673ffffffffffffffffffffffffffffffffffffffff163373ffffffffffffffffffffffffffffffffffffffff1614151561139957600080fd5b8061ffff16600960008473ffffffffffffffffffffffffffffffffffffffff1673ffffffffffffffffffffffffffffffffffffffff168152602001908152602001600020819055505050565b6003818154811015156113f457fe5b906000526020600020016000915090505481565b6000809054906101000a900473ffffffffffffffffffffffffffffffffffffffff1673ffffffffffffffffffffffffffffffffffffffff163373ffffffffffffffffffffffffffffffffffffffff1614151561146357600080fd5b600073ffffffffffffffffffffffffffffffffffffffff168173ffffffffffffffffffffffffffffffffffffffff161415151561149f57600080fd5b8073ffffffffffffffffffffffffffffffffffffffff166000809054906101000a900473ffffffffffffffffffffffffffffffffffffffff1673ffffffffffffffffffffffffffffffffffffffff167f8be0079c531659141344cd1fd0a4f28419497f9722a3daafe3b4186f6b6457e060405160405180910390a3806000806101000a81548173ffffffffffffffffffffffffffffffffffffffff021916908373ffffffffffffffffffffffffffffffffffffffff16021790555050565b60045481565b60006060600080600860008781526020019081526020016000208054806020026020016040519081016040528092919081815260200182805480156115c757602002820191906000526020600020905b8154815260200190600101908083116115b3575b50505050509250600091505b825182101561168057600783838151811015156115ec57fe5b9060200190602002015181548110151561160257fe5b906000526020600020906002020160000160009054906101000a900473ffffffffffffffffffffffffffffffffffffffff1690508073ffffffffffffffffffffffffffffffffffffffff168573ffffffffffffffffffffffffffffffffffffffff1614156116735760019350611685565b81806001019250506115d3565b600093505b50505092915050565b608060405190810160405280600073ffffffffffffffffffffffffffffffffffffffff16815260200160008152602001600081526020016000815250905600a165627a7a7230582054b2cccd22a4f4e375c36740773323ea4c054e5c76528c6ad07d4893f3e0d7690029",
  "source": "pragma solidity ^0.4.23;\r\n\r\nimport \"./AnswerFactory.sol\";\r\n\r\n/*\r\n * The upvote contract allows users to upvote their favorite answers.\r\n * Users must be given the ability to vote by the Owner of the contract\r\n * they are only allowed to vote once per question.\r\n * A future edition of this contract plans on implementing a single transferable vote\r\n * as well as making reputation and ability to vote more decentralized\r\n *\r\n */\r\ncontract UpVote is AnswerFactory {\r\n  \r\n    struct Vote {\r\n        address voter;\r\n        uint aid;\r\n    }\r\n\r\n    Vote[] public votes;\r\n\r\n    mapping(uint => uint[]) public questionIdToVoteIds;\r\n    mapping(address => uint) public reputation;\r\n\r\n    function giveRightToVote(address _voter, uint16 _reputation) public onlyOwner {\r\n        reputation[_voter] = _reputation;\r\n    }\r\n\r\n    function didVote(uint _qid, address _voter) internal view returns (bool) {\r\n        uint[] memory _questionVotes = questionIdToVoteIds[_qid];\r\n\r\n        for (uint i = 0; i < _questionVotes.length; i++) {\r\n            address voted = votes[_questionVotes[i]].voter;\r\n            if (_voter == voted) {\r\n                return true;\r\n            }\r\n        }\r\n        return false;\r\n    } \r\n\r\n    function upVote(address _voter, uint _aid) public {\r\n        uint _qid = getQuestionId(_aid);\r\n        uint _weight = reputation[msg.sender];\r\n        \r\n        require(answerStruct[_aid].giver != _voter, \"Can't vote on your own answer\");\r\n        require(!didVote(_qid, msg.sender), \"Cannot vote twice\");\r\n\r\n        uint _voteId = votes.push(Vote(msg.sender, _aid)) - 1;\r\n        questionIdToVoteIds[_qid].push(_voteId);\r\n        answerStruct[_aid].score = answerStruct[_aid].score + _weight;     \r\n    }\r\n\r\n    function payoutWinner(uint _qid) public returns (uint totalBounty) {\r\n        require(!questionStruct[_qid].payedOut, \"Question already payed out\");\r\n\r\n        Answer memory bestAnswer;\r\n        uint winningScore = 0;\r\n        totalBounty = questionStruct[_qid].bounty;\r\n        \r\n        for (uint i = 0; i < answerList.length; i++) {\r\n            if (answerStruct[answerList[i]].qid == _qid) {\r\n                totalBounty = totalBounty + answerStruct[answerList[i]].stake - (10000000000000 * i);\r\n                if(answerStruct[answerList[i]].score > winningScore) {\r\n                    winningScore = answerStruct[answerList[i]].score;\r\n                    bestAnswer = answerStruct[answerList[i]];\r\n                }\r\n            }\r\n        }\r\n\r\n        if (winningScore == 0) {\r\n            questionStruct[_qid].asker.transfer(totalBounty);\r\n        } else {\r\n            bestAnswer.giver.transfer(totalBounty);           \r\n        }\r\n\r\n        questionStruct[_qid].payedOut = true;\r\n        return totalBounty;\r\n    }\r\n}",
  "sourcePath": "C:\\Users\\kshif\\Desktop\\catalyst\\contracts\\contracts\\UpVote.sol",
  "compiler": {
    "name": "solc",
    "version": "0.4.24+commit.e67f0147.Emscripten.clang"
  },
  "schemaVersion": "2.0.0",
  "updatedAt": "2018-05-31T06:56:27.925Z"
}