{
  "contractName": "UpVote",
  "abi": [
    {
      "constant": true,
      "inputs": [
        {
          "name": "",
          "type": "uint256"
        },
        {
          "name": "",
          "type": "uint256"
        }
      ],
      "name": "questionIdToAnswerIds",
      "outputs": [
        {
          "name": "",
          "type": "uint256"
        }
      ],
      "payable": false,
      "stateMutability": "view",
      "type": "function"
    },
    {
      "constant": false,
      "inputs": [
        {
          "name": "_id",
          "type": "uint256"
        }
      ],
      "name": "createQuestion",
      "outputs": [
        {
          "name": "index",
          "type": "uint256"
        }
      ],
      "payable": true,
      "stateMutability": "payable",
      "type": "function"
    },
    {
      "constant": true,
      "inputs": [
        {
          "name": "_qid",
          "type": "uint256"
        }
      ],
      "name": "getAnswers",
      "outputs": [
        {
          "name": "",
          "type": "uint256[]"
        }
      ],
      "payable": false,
      "stateMutability": "view",
      "type": "function"
    },
    {
      "constant": false,
      "inputs": [
        {
          "name": "_minBounty",
          "type": "uint256"
        }
      ],
      "name": "setMinBounty",
      "outputs": [],
      "payable": false,
      "stateMutability": "nonpayable",
      "type": "function"
    },
    {
      "constant": true,
      "inputs": [
        {
          "name": "",
          "type": "uint256"
        },
        {
          "name": "",
          "type": "uint256"
        }
      ],
      "name": "questionIdToVoteIds",
      "outputs": [
        {
          "name": "",
          "type": "uint256"
        }
      ],
      "payable": false,
      "stateMutability": "view",
      "type": "function"
    },
    {
      "constant": true,
      "inputs": [
        {
          "name": "",
          "type": "uint256"
        }
      ],
      "name": "votes",
      "outputs": [
        {
          "name": "voter",
          "type": "address"
        },
        {
          "name": "aid",
          "type": "uint256"
        }
      ],
      "payable": false,
      "stateMutability": "view",
      "type": "function"
    },
    {
      "constant": true,
      "inputs": [
        {
          "name": "",
          "type": "uint256"
        }
      ],
      "name": "answerStruct",
      "outputs": [
        {
          "name": "giver",
          "type": "address"
        },
        {
          "name": "stake",
          "type": "uint256"
        },
        {
          "name": "qid",
          "type": "uint256"
        },
        {
          "name": "score",
          "type": "uint256"
        }
      ],
      "payable": false,
      "stateMutability": "view",
      "type": "function"
    },
    {
      "constant": false,
      "inputs": [
        {
          "name": "_id",
          "type": "uint256"
        },
        {
          "name": "_qid",
          "type": "uint256"
        }
      ],
      "name": "createAnswer",
      "outputs": [
        {
          "name": "index",
          "type": "uint256"
        }
      ],
      "payable": true,
      "stateMutability": "payable",
      "type": "function"
    },
    {
      "constant": false,
      "inputs": [],
      "name": "renounceOwnership",
      "outputs": [],
      "payable": false,
      "stateMutability": "nonpayable",
      "type": "function"
    },
    {
      "constant": true,
      "inputs": [],
      "name": "minBounty",
      "outputs": [
        {
          "name": "",
          "type": "uint256"
        }
      ],
      "payable": false,
      "stateMutability": "view",
      "type": "function"
    },
    {
      "constant": true,
      "inputs": [
        {
          "name": "_id",
          "type": "uint256"
        }
      ],
      "name": "getQuestionId",
      "outputs": [
        {
          "name": "qid",
          "type": "uint256"
        }
      ],
      "payable": false,
      "stateMutability": "view",
      "type": "function"
    },
    {
      "constant": true,
      "inputs": [],
      "name": "owner",
      "outputs": [
        {
          "name": "",
          "type": "address"
        }
      ],
      "payable": false,
      "stateMutability": "view",
      "type": "function"
    },
    {
      "constant": true,
      "inputs": [
        {
          "name": "",
          "type": "uint256"
        }
      ],
      "name": "questionStruct",
      "outputs": [
        {
          "name": "bounty",
          "type": "uint256"
        },
        {
          "name": "asker",
          "type": "address"
        },
        {
          "name": "payedOut",
          "type": "bool"
        }
      ],
      "payable": false,
      "stateMutability": "view",
      "type": "function"
    },
    {
      "constant": true,
      "inputs": [
        {
          "name": "",
          "type": "address"
        }
      ],
      "name": "reputation",
      "outputs": [
        {
          "name": "",
          "type": "uint256"
        }
      ],
      "payable": false,
      "stateMutability": "view",
      "type": "function"
    },
    {
      "constant": true,
      "inputs": [
        {
          "name": "",
          "type": "uint256"
        }
      ],
      "name": "answerList",
      "outputs": [
        {
          "name": "",
          "type": "uint256"
        }
      ],
      "payable": false,
      "stateMutability": "view",
      "type": "function"
    },
    {
      "constant": true,
      "inputs": [],
      "name": "getQuestionCount",
      "outputs": [
        {
          "name": "",
          "type": "uint256"
        }
      ],
      "payable": false,
      "stateMutability": "view",
      "type": "function"
    },
    {
      "constant": true,
      "inputs": [
        {
          "name": "_qid",
          "type": "uint256"
        }
      ],
      "name": "answerCount",
      "outputs": [
        {
          "name": "count",
          "type": "uint256"
        }
      ],
      "payable": false,
      "stateMutability": "view",
      "type": "function"
    },
    {
      "constant": true,
      "inputs": [
        {
          "name": "",
          "type": "uint256"
        }
      ],
      "name": "questionList",
      "outputs": [
        {
          "name": "",
          "type": "uint256"
        }
      ],
      "payable": false,
      "stateMutability": "view",
      "type": "function"
    },
    {
      "constant": false,
      "inputs": [
        {
          "name": "newOwner",
          "type": "address"
        }
      ],
      "name": "transferOwnership",
      "outputs": [],
      "payable": false,
      "stateMutability": "nonpayable",
      "type": "function"
    },
    {
      "constant": true,
      "inputs": [],
      "name": "currentStake",
      "outputs": [
        {
          "name": "",
          "type": "uint256"
        }
      ],
      "payable": false,
      "stateMutability": "view",
      "type": "function"
    },
    {
      "anonymous": false,
      "inputs": [
        {
          "indexed": true,
          "name": "previousOwner",
          "type": "address"
        }
      ],
      "name": "OwnershipRenounced",
      "type": "event"
    },
    {
      "anonymous": false,
      "inputs": [
        {
          "indexed": true,
          "name": "previousOwner",
          "type": "address"
        },
        {
          "indexed": true,
          "name": "newOwner",
          "type": "address"
        }
      ],
      "name": "OwnershipTransferred",
      "type": "event"
    },
    {
      "constant": false,
      "inputs": [
        {
          "name": "_voter",
          "type": "address"
        },
        {
          "name": "_reputation",
          "type": "uint16"
        }
      ],
      "name": "giveRightToVote",
      "outputs": [],
      "payable": false,
      "stateMutability": "nonpayable",
      "type": "function"
    },
    {
      "constant": false,
      "inputs": [
        {
          "name": "_voter",
          "type": "address"
        },
        {
          "name": "_aid",
          "type": "uint256"
        }
      ],
      "name": "upVote",
      "outputs": [],
      "payable": false,
      "stateMutability": "nonpayable",
      "type": "function"
    },
    {
      "constant": false,
      "inputs": [
        {
          "name": "_qid",
          "type": "uint256"
        }
      ],
      "name": "payoutWinner",
      "outputs": [
        {
          "name": "reward",
          "type": "uint256"
        }
      ],
      "payable": false,
      "stateMutability": "nonpayable",
      "type": "function"
    }
  ],
  "bytecode": "0x6080604052655af3107a40006001556509184e72a000600455336000806101000a81548173ffffffffffffffffffffffffffffffffffffffff021916908373ffffffffffffffffffffffffffffffffffffffff160217905550336000806101000a81548173ffffffffffffffffffffffffffffffffffffffff021916908373ffffffffffffffffffffffffffffffffffffffff160217905550611948806100a76000396000f300608060405260043610610133576000357c0100000000000000000000000000000000000000000000000000000000900463ffffffff1680630967a797146101385780631e1967b7146101835780631e59e02a146101b75780633b58f49a146102395780634c629d4a146102665780635df81330146102b157806368a0dd65146103255780636a532d02146103a7578063715018a6146103e557806389b8db55146103fc5780638cae231e146104275780638da5cb5b14610468578063b8b559b0146104bf578063b9f794511461053e578063c9930ee014610595578063d68fd02a146105d6578063dd41cc2f14610617578063e257911414610642578063e73cf0da1461068f578063ea14ed25146106d0578063eaaea05c14610721578063f2fde38b14610762578063fdeaacd6146107a5575b600080fd5b34801561014457600080fd5b5061016d60048036038101908080359060200190929190803590602001909291905050506107d0565b6040518082815260200191505060405180910390f35b6101a160048036038101908080359060200190929190505050610800565b6040518082815260200191505060405180910390f35b3480156101c357600080fd5b506101e2600480360381019080803590602001909291905050506108e6565b6040518080602001828103825283818151815260200191508051906020019060200280838360005b8381101561022557808201518184015260208101905061020a565b505050509050019250505060405180910390f35b34801561024557600080fd5b5061026460048036038101908080359060200190929190505050610956565b005b34801561027257600080fd5b5061029b60048036038101908080359060200190929190803590602001909291905050506109bb565b6040518082815260200191505060405180910390f35b3480156102bd57600080fd5b506102dc600480360381019080803590602001909291905050506109eb565b604051808373ffffffffffffffffffffffffffffffffffffffff1673ffffffffffffffffffffffffffffffffffffffff1681526020018281526020019250505060405180910390f35b34801561033157600080fd5b5061035060048036038101908080359060200190929190505050610a3e565b604051808573ffffffffffffffffffffffffffffffffffffffff1673ffffffffffffffffffffffffffffffffffffffff16815260200184815260200183815260200182815260200194505050505060405180910390f35b6103cf6004803603810190808035906020019092919080359060200190929190505050610a8e565b6040518082815260200191505060405180910390f35b3480156103f157600080fd5b506103fa610c95565b005b34801561040857600080fd5b50610411610d97565b6040518082815260200191505060405180910390f35b34801561043357600080fd5b5061045260048036038101908080359060200190929190505050610d9d565b6040518082815260200191505060405180910390f35b34801561047457600080fd5b5061047d610dbd565b604051808273ffffffffffffffffffffffffffffffffffffffff1673ffffffffffffffffffffffffffffffffffffffff16815260200191505060405180910390f35b3480156104cb57600080fd5b506104ea60048036038101908080359060200190929190505050610de2565b604051808481526020018373ffffffffffffffffffffffffffffffffffffffff1673ffffffffffffffffffffffffffffffffffffffff16815260200182151515158152602001935050505060405180910390f35b34801561054a57600080fd5b5061057f600480360381019080803573ffffffffffffffffffffffffffffffffffffffff169060200190929190505050610e39565b6040518082815260200191505060405180910390f35b3480156105a157600080fd5b506105c060048036038101908080359060200190929190505050610e51565b6040518082815260200191505060405180910390f35b3480156105e257600080fd5b5061060160048036038101908080359060200190929190505050610e74565b6040518082815260200191505060405180910390f35b34801561062357600080fd5b5061062c611179565b6040518082815260200191505060405180910390f35b34801561064e57600080fd5b5061068d600480360381019080803573ffffffffffffffffffffffffffffffffffffffff16906020019092919080359060200190929190505050611186565b005b34801561069b57600080fd5b506106ba60048036038101908080359060200190929190505050611458565b6040518082815260200191505060405180910390f35b3480156106dc57600080fd5b5061071f600480360381019080803573ffffffffffffffffffffffffffffffffffffffff169060200190929190803561ffff169060200190929190505050611553565b005b34801561072d57600080fd5b5061074c600480360381019080803590602001909291905050506115fa565b6040518082815260200191505060405180910390f35b34801561076e57600080fd5b506107a3600480360381019080803573ffffffffffffffffffffffffffffffffffffffff16906020019092919050505061161d565b005b3480156107b157600080fd5b506107ba611772565b6040518082815260200191505060405180910390f35b6005602052816000526040600020818154811015156107eb57fe5b90600052602060002001600091509150505481565b60006001543411151561081257600080fd5b346002600084815260200190815260200160002060000181905550336002600084815260200190815260200160002060010160006101000a81548173ffffffffffffffffffffffffffffffffffffffff021916908373ffffffffffffffffffffffffffffffffffffffff16021790555060006002600084815260200190815260200160002060010160146101000a81548160ff021916908315150217905550600160038390806001815401808255809150509060018203906000526020600020016000909192909190915055039050919050565b6060806005600084815260200190815260200160002080548060200260200160405190810160405280929190818152602001828054801561094657602002820191906000526020600020905b815481526020019060010190808311610932575b5050505050905080915050919050565b6000809054906101000a900473ffffffffffffffffffffffffffffffffffffffff1673ffffffffffffffffffffffffffffffffffffffff163373ffffffffffffffffffffffffffffffffffffffff161415156109b157600080fd5b8060018190555050565b6009602052816000526040600020818154811015156109d657fe5b90600052602060002001600091509150505481565b6008818154811015156109fa57fe5b90600052602060002090600202016000915090508060000160009054906101000a900473ffffffffffffffffffffffffffffffffffffffff16908060010154905082565b60066020528060005260406000206000915090508060000160009054906101000a900473ffffffffffffffffffffffffffffffffffffffff16908060010154908060020154908060030154905084565b60006005610a9b836108e6565b5111151515610b12576040517f08c379a000000000000000000000000000000000000000000000000000000000815260040180806020018281038252601b8152602001807f4f6e6c79203520616e737765727320706572207175657374696f6e000000000081525060200191505060405180910390fd5b60045434111515610bb1576040517f08c379a00000000000000000000000000000000000000000000000000000000081526004018080602001828103825260248152602001807f4d757374207374616b65206d6f7265207468616e20746865206c61737420616e81526020017f737765720000000000000000000000000000000000000000000000000000000081525060400191505060405180910390fd5b34600481905550336006600085815260200190815260200160002060000160006101000a81548173ffffffffffffffffffffffffffffffffffffffff021916908373ffffffffffffffffffffffffffffffffffffffff1602179055503460066000858152602001908152602001600020600101819055508160066000858152602001908152602001600020600201819055506000600660008581526020019081526020016000206003018190555060016007849080600181540180825580915050906001820390600052602060002001600090919290919091505503905092915050565b6000809054906101000a900473ffffffffffffffffffffffffffffffffffffffff1673ffffffffffffffffffffffffffffffffffffffff163373ffffffffffffffffffffffffffffffffffffffff16141515610cf057600080fd5b6000809054906101000a900473ffffffffffffffffffffffffffffffffffffffff1673ffffffffffffffffffffffffffffffffffffffff167ff8df31144d9c2f0f6b59d69b8b98abd5459d07f2742c4df920b25aae33c6482060405160405180910390a260008060006101000a81548173ffffffffffffffffffffffffffffffffffffffff021916908373ffffffffffffffffffffffffffffffffffffffff160217905550565b60015481565b600060066000838152602001908152602001600020600201549050919050565b6000809054906101000a900473ffffffffffffffffffffffffffffffffffffffff1681565b60026020528060005260406000206000915090508060000154908060010160009054906101000a900473ffffffffffffffffffffffffffffffffffffffff16908060010160149054906101000a900460ff16905083565b600a6020528060005260406000206000915090505481565b600781815481101515610e6057fe5b906000526020600020016000915090505481565b6000610e7e6118a3565b610e866118dd565b600080610e916118dd565b6002600088815260200190815260200160002060606040519081016040529081600082015481526020016001820160009054906101000a900473ffffffffffffffffffffffffffffffffffffffff1673ffffffffffffffffffffffffffffffffffffffff1673ffffffffffffffffffffffffffffffffffffffff1681526020016001820160149054906101000a900460ff16151515158152505094508460400151151515610fa7576040517f08c379a000000000000000000000000000000000000000000000000000000000815260040180806020018281038252601a8152602001807f5175657374696f6e20616c7265616479207061796564206f757400000000000081525060200191505060405180910390fd5b6000925084600001519550600091505b6007805490508210156110b65760066000600784815481101515610fd757fe5b90600052602060002001548152602001908152602001600020608060405190810160405290816000820160009054906101000a900473ffffffffffffffffffffffffffffffffffffffff1673ffffffffffffffffffffffffffffffffffffffff1673ffffffffffffffffffffffffffffffffffffffff1681526020016001820154815260200160028201548152602001600382015481525050905086816040015114156110a957816509184e72a000028160200151870103955082816060015111156110a857806060015192508093505b5b8180600101925050610fb7565b600083141561110f57846020015173ffffffffffffffffffffffffffffffffffffffff166108fc879081150290604051600060405180830381858888f19350505050158015611109573d6000803e3d6000fd5b5061115b565b836000015173ffffffffffffffffffffffffffffffffffffffff166108fc879081150290604051600060405180830381858888f19350505050158015611159573d6000803e3d6000fd5b505b60018560400190151590811515815250508595505050505050919050565b6000600380549050905090565b600080600061119484610d9d565b9250600a60003373ffffffffffffffffffffffffffffffffffffffff1673ffffffffffffffffffffffffffffffffffffffff1681526020019081526020016000205491508473ffffffffffffffffffffffffffffffffffffffff166006600086815260200190815260200160002060000160009054906101000a900473ffffffffffffffffffffffffffffffffffffffff1673ffffffffffffffffffffffffffffffffffffffff16141515156112b2576040517f08c379a000000000000000000000000000000000000000000000000000000000815260040180806020018281038252601d8152602001807f43616e277420766f7465206f6e20796f7572206f776e20616e7377657200000081525060200191505060405180910390fd5b6112bc8333611778565b151515611331576040517f08c379a00000000000000000000000000000000000000000000000000000000081526004018080602001828103825260118152602001807f43616e6e6f7420766f746520747769636500000000000000000000000000000081525060200191505060405180910390fd5b6001600860408051908101604052803373ffffffffffffffffffffffffffffffffffffffff168152602001878152509080600181540180825580915050906001820390600052602060002090600202016000909192909190915060008201518160000160006101000a81548173ffffffffffffffffffffffffffffffffffffffff021916908373ffffffffffffffffffffffffffffffffffffffff160217905550602082015181600101555050039050600960008481526020019081526020016000208190806001815401808255809150509060018203906000526020600020016000909192909190915055508160066000868152602001908152602001600020600301540160066000868152602001908152602001600020600301819055505050505050565b6000806114636118dd565b60009250600091505b600780549050821015611549576006600060078481548110151561148c57fe5b90600052602060002001548152602001908152602001600020608060405190810160405290816000820160009054906101000a900473ffffffffffffffffffffffffffffffffffffffff1673ffffffffffffffffffffffffffffffffffffffff1673ffffffffffffffffffffffffffffffffffffffff16815260200160018201548152602001600282015481526020016003820154815250509050838160400151141561153c5782806001019350505b818060010192505061146c565b8292505050919050565b6000809054906101000a900473ffffffffffffffffffffffffffffffffffffffff1673ffffffffffffffffffffffffffffffffffffffff163373ffffffffffffffffffffffffffffffffffffffff161415156115ae57600080fd5b8061ffff16600a60008473ffffffffffffffffffffffffffffffffffffffff1673ffffffffffffffffffffffffffffffffffffffff168152602001908152602001600020819055505050565b60038181548110151561160957fe5b906000526020600020016000915090505481565b6000809054906101000a900473ffffffffffffffffffffffffffffffffffffffff1673ffffffffffffffffffffffffffffffffffffffff163373ffffffffffffffffffffffffffffffffffffffff1614151561167857600080fd5b600073ffffffffffffffffffffffffffffffffffffffff168173ffffffffffffffffffffffffffffffffffffffff16141515156116b457600080fd5b8073ffffffffffffffffffffffffffffffffffffffff166000809054906101000a900473ffffffffffffffffffffffffffffffffffffffff1673ffffffffffffffffffffffffffffffffffffffff167f8be0079c531659141344cd1fd0a4f28419497f9722a3daafe3b4186f6b6457e060405160405180910390a3806000806101000a81548173ffffffffffffffffffffffffffffffffffffffff021916908373ffffffffffffffffffffffffffffffffffffffff16021790555050565b60045481565b60006060600080600960008781526020019081526020016000208054806020026020016040519081016040528092919081815260200182805480156117dc57602002820191906000526020600020905b8154815260200190600101908083116117c8575b50505050509250600091505b8251821015611895576008838381518110151561180157fe5b9060200190602002015181548110151561181757fe5b906000526020600020906002020160000160009054906101000a900473ffffffffffffffffffffffffffffffffffffffff1690508073ffffffffffffffffffffffffffffffffffffffff168573ffffffffffffffffffffffffffffffffffffffff161415611888576001935061189a565b81806001019250506117e8565b600093505b50505092915050565b60606040519081016040528060008152602001600073ffffffffffffffffffffffffffffffffffffffff1681526020016000151581525090565b608060405190810160405280600073ffffffffffffffffffffffffffffffffffffffff16815260200160008152602001600081526020016000815250905600a165627a7a72305820263d0766a252589eb46d6389d275eb56339413497fb9324484c09f06285bac870029",
  "source": "pragma solidity ^0.4.23;\r\n\r\nimport \"./AnswerFactory.sol\";\r\n\r\n/*\r\n * The upvote contract allows users to upvote their favorite answers.\r\n * Users must be given the ability to vote by the Owner of the contract\r\n * they are only allowed to vote once per question.\r\n * A future edition of this contract plans on implementing a single transferable vote\r\n * as well as making reputation and ability to vote more decentralized\r\n *\r\n */\r\ncontract UpVote is AnswerFactory {\r\n  \r\n    struct Vote {\r\n        address voter;\r\n        uint aid;\r\n    }\r\n\r\n    Vote[] public votes;\r\n\r\n    mapping(uint => uint[]) public questionIdToVoteIds;\r\n    mapping(address => uint) public reputation;\r\n\r\n    function giveRightToVote(address _voter, uint16 _reputation) public onlyOwner {\r\n        reputation[_voter] = _reputation;\r\n    }\r\n\r\n    function didVote(uint _qid, address _voter) internal view returns (bool) {\r\n        uint[] memory _questionVotes = questionIdToVoteIds[_qid];\r\n\r\n        for (uint i = 0; i < _questionVotes.length; i++) {\r\n            address voted = votes[_questionVotes[i]].voter;\r\n            if (_voter == voted) {\r\n                return true;\r\n            }\r\n        }\r\n        return false;\r\n    } \r\n\r\n    function upVote(address _voter, uint _aid) public {\r\n        uint _qid = getQuestionId(_aid);\r\n        uint _weight = reputation[msg.sender];\r\n        \r\n        require(answerStruct[_aid].giver != _voter, \"Can't vote on your own answer\");\r\n        require(!didVote(_qid, msg.sender), \"Cannot vote twice\");\r\n\r\n        uint _voteId = votes.push(Vote(msg.sender, _aid)) - 1;\r\n        questionIdToVoteIds[_qid].push(_voteId);\r\n        answerStruct[_aid].score = answerStruct[_aid].score + _weight;     \r\n    }\r\n\r\n    function payoutWinner(uint _qid) public returns (uint reward) {\r\n        Question memory question = questionStruct[_qid];\r\n        Answer memory bestAnswer;\r\n        require(!question.payedOut, \"Question already payed out\");\r\n        uint winningScore = 0;\r\n        reward = question.bounty;\r\n        \r\n        for (uint i = 0; i < answerList.length; i++) {\r\n            Answer memory answer = answerStruct[answerList[i]];\r\n            if (answer.qid == _qid) {\r\n                reward = reward + answer.stake - (10000000000000 wei * i);\r\n                if(answer.score > winningScore) {\r\n                    winningScore = answer.score;\r\n                    bestAnswer = answer;\r\n                }\r\n            }\r\n        }\r\n\r\n        if (winningScore == 0) {\r\n            question.asker.transfer(reward);\r\n        } else {\r\n            bestAnswer.giver.transfer(reward);           \r\n        }\r\n\r\n        question.payedOut = true;\r\n        return reward;\r\n    }\r\n}",
  "sourcePath": "C:\\Users\\kshif\\Desktop\\catalyst\\contracts\\contracts\\UpVote.sol",
  "compiler": {
    "name": "solc",
    "version": "0.4.24+commit.e67f0147.Emscripten.clang"
  },
  "schemaVersion": "2.0.0",
  "updatedAt": "2018-05-31T20:48:11.460Z"
}